:020000040800F2
:1000000028A30124AD020008493B000891320008F2
:10001000413B00086104000849410008000000005D
:10002000000000000000000000000000113E000879
:100030007904000800000000513B0008693E0008F8
:10004000C7020008C7020008C7020008C70200086C
:10005000C7020008C7020008C7020008C70200085C
:10006000C7020008C7020008C7020008C70200084C
:10007000C7020008C7020008C7020008C70200083C
:10008000C7020008C7020008C7020008C70200082C
:10009000C7020008C7020008C7020008C70200081C
:1000A000C7020008C7020008C7020008C70200080C
:1000B000C7020008C7020008C7020008C7020008FC
:1000C000C7020008C7020008C7020008C7020008EC
:1000D000C7020008C7020008C7020008C7020008DC
:1000E000C7020008C702000800000000C70200089D
:1000F000C7020008C7020008C7020008C7020008BC
:10010000C7020008C7020008C7020008C7020008AB
:10011000C7020008C7020008E13F0008C702000844
:10012000C7020008C7020008C7020008C70200088B
:10013000C7020008C7020008C7020008C70200087B
:1001400000000000000000000000000000000000AF
:10015000C7020008C7020008C7020008C70200085B
:10016000C7020008C7020008C7020008C70200084B
:10017000C7020008C7020008C7020008000000000C
:10018000C7020008C7020008C7020008C70200082B
:10019000C7020008C7020008C7020008C70200081B
:1001A000C7020008C702000869040008C702000867
:1001B000C7020008C7020008C7020008C7020008FB
:1001C000C7020008C7020008C7020008C7020008EB
:1001D000C7020008C7020008C7020008C7020008DB
:1001E000C7020008C7020008C7020008C7020008CB
:1001F000C7020008C7020008C7020008C7020008BB
:10020000C7020008C7020008C7020008C7020008AA
:10021000C7020008C7020008C7020008C70200089A
:10022000C7020008C7020008C7020008000000005B
:10023000C7020008C702000800000000C70200084B
:10024000C7020008C7020008C7020008C70200086A
:10025000C7020008C7020008C7020008C70200085A
:10026000C7020008C7020008C7020008C70200084A
:10027000C7020008C7020008C7020008000000000B
:10028000C7020008C7020008C702000800000000FB
:1002900000000000C7020008DFF80CD000F0CEF824
:1002A0000048004741ED020828A301240648804782
:1002B00006480047FEE7FEE7FEE7FEE7FEE7FEE74B
:1002C000FEE7FEE7FEE7FEE7613F0008990200084F
:1002D0002DE9F05F0546002092469B46884606467B
:1002E000814640241BE0284641464746224600F00E
:1002F00095F853465A46C01A914110D311461846F4
:10030000224600F07CF82D1A67EB01084F46224682
:100310000120002100F073F817EB00094E41201E68
:10032000A4F10104DFDC484631462A464346BDE8D5
:10033000F09F10B5431A934209D28318881803E03E
:1003400010F8011D03F8011D521EF9D210BD40EA3C
:1003500001039B0703D009E008C9121F08C0042A43
:10036000FAD203E011F8013B00F8013B521EF9D22A
:1003700010BDD2B201E000F8012B491EFBD270473C
:100380000022F6E710B513460A4604461946FFF761
:10039000F0FF204610BD421C10F8011B0029FBD1C4
:1003A000801A704710B5002200E0521C835C8C5C00
:1003B000A34201D1002BF8D1D8B2E1B2401A10BD4E
:1003C000034611F8012B00F8012B002AF9D1184639
:1003D000704730B50B46014600202022012409E079
:1003E00021FA02F59D4205D303FA02F5491B04FAEE
:1003F00002F52844151EA2F10102F1DC30BD202ACD
:1004000004DB203A00FA02F1002070479140C2F16B
:10041000200320FA03F3194390407047202A04DB9D
:10042000203A21FA02F00021704721FA02F3D0406D
:10043000C2F120029140084319467047064C074D0F
:1004400006E0E06840F0010394E8070098471034A4
:10045000AC42F6D3FFF724FF5C9C14087C9C140884
:10046000FEE700000000000040F2A070C2F2004071
:1004700000F042BA000000007047000000000000D9
:10048000704700000000000080B50A68002A02687A
:1004900022D022F4F84C4A6AD1E9073E43EA0C0321
:1004A00043EA0E031A430260426847F6FF7322EAEA
:1004B000030CCA68D1E9013E43EA0C03D1F810C02D
:1004C00043EA0E031A434B6942EA0C0289691A4354
:1004D00011434160002080BD47F6FF7322EA030C00
:1004E000CA68D1E9013E43EA0C03D1F810C043EADF
:1004F0000E031A434B6942EA0C02D1F818C01A43A2
:10050000CB6942EA0C02D1F820C01A43496A42EA98
:100510000C0211430160002080BD000000000000BB
:100520000246406943F6FE7320EA0303002043EAD3
:10053000410151617047000010B5024600696FF338
:1005400015006FF01F04D1E900ECD1E9023140EA57
:100550000E0004EB431340EA0C000343002043EA7F
:100560004121116110BD00002DE9F041002A82688F
:1005700036D040F6FF734FF20006CFF60F73CFF67A
:10058000FF761A40CB684F696FF00F0406EB033318
:100590000026CFF6F0761A4306EB07573A438260FF
:1005A000C2688E68D1E9003702F07042013B04EB6B
:1005B00007176FF0FF040D6904EB062600241A43A9
:1005C000CFF6FF7489693A4304EB0545013932439C
:1005D0002A4342EA0161C1600020BDE8F08100BF0A
:1005E00001F1080602F0704CD1E900E278CE6FF01C
:1005F0000F074FF2000807EB02126FF0FF0707EB3F
:100600000323AEF1010747EA0C07CFF6FF7840F26B
:10061000000E3A4308EB0434CFF6FF7E00271A435E
:1006200089690EEB0545CFF6F077224307EB0653B9
:1006300001392A431A4342EA016181600020BDE882
:10064000F08100000000000080B584B0844640F6D0
:100650000800CDE90012C2F20040BB210223FF22B4
:100660000292624600F014FC04B080BD000000005D
:1006700080B584B0844640F60800CDE90012C2F28D
:100680000040BA210223FF220292624600F038FDA8
:1006900004B080BD000000002DE9F04F87B040F2AB
:1006A000401949F6DA18C2F20049C0F6140840F6BB
:1006B00008040DF1100A99F80100C2F20044BA22B0
:1006C00002230AF102054FF0000B00EB40008DF809
:1006D00012B0CDF800A0022608EB40000196FF27DB
:1006E000029780888DF81100010A8DF81010BA2148
:1006F000204600F005FD0120BB21CDE90050BA22C3
:1007000002232046029700F0C3FB642000F000FAA9
:1007100044F281000490BA21BA2202232046CDF887
:1007200014B0CDE900A6029700F0EAFC0620BB2138
:10073000CDE90107BA2202232046009500F0A8FB6C
:100740009DF8140035280DD031281AD19DF81200DB
:10075000392816D19DF81300312812D1012089F8CB
:1007600001000EE09DF81200392804BF9DF8130027
:10077000312806D19DF81500372804BF0020A9F8BC
:10078000000099F8010040F60804C2F2004400217C
:10079000CDF81610BA2200EB4000CDF8121002235B
:1007A000CDF800A008EB400002260196FF278088C4
:1007B000029701308DF81100010A8DF81010BA214E
:1007C000204600F09DFC0820BB21CDE90050BA2254
:1007D00002232046029700F05BFB99F80100BA2241
:1007E00002230297CDE900A600EB400008EB400091
:1007F000808806308DF81100010A8DF81010BA219A
:10080000204600F07DFC0120BB21CDE90050BA223A
:1008100002232046029700F03BFB002007B0BDE812
:10082000F08F000000000000704700000000000092
:100830002DE9F04190F86020012A4FF0020256D0D5
:10084000C1EBC10380F8612000EB830303F1280CA6
:10085000D3E90B42D3E90D85DE6B44EA0242A4F1F1
:10086000090E4FEA0867BEF1020F42EA055238BF8F
:1008700008F07F4742EA4652002942EA07011BD0AE
:100880000B2C4FF6F074C0F2CC0404D11A6CA4F512
:10089000402441EA82410368BEF1010FDA6902EAAD
:1008A000040241EA0201D961DCF80010196118D88C
:1008B00028F07F41196214E002684FF6F074C0F22C
:1008C000CC04BEF1010F536A03EA040341EA0301B9
:1008D0005162DCF80010916103D8416B21F07F4137
:1008E00091620022012180F8611080F8602010469A
:1008F000BDE8F0810000000070B50446006846685D
:100900000568F10718BF15F480717DD1B0061AD5BE
:1009100015F4005017D02068616A026822F4005272
:1009200002604FF020028260606E40F0020060665C
:100930004FF0040084F861004FF0000084F860007C
:1009400009B12046884730071AD515F4006017D042
:100950002068616A026822F4006202604FF00802B7
:100960008260606E40F0040060664FF0040084F81E
:1009700061004FF0000084F8600009B1204688470C
:1009800070070CD515F4806009D02068016821F447
:100990008061016004218160204600F091F8B00779
:1009A00018D515F4007015D02068216A026822F469
:1009B000007202604FF002028260606E60664FF06B
:1009C000010084F861004FF0000084F8600009B174
:1009D00020468847F0062FD515F4805008BF70BD1B
:1009E0002068016821F48051016010218160606EEF
:1009F0006066012084F86100002084F860002046D1
:100A0000BDE87040FFF710BF016821F480710160FC
:100A1000616E41F00101616601218160042084F86A
:100A20006100616A0020002984F860003FF46EAF25
:100A3000204688476AE700BF70BD00000000000044
:100A4000E0B310B5044690F8610028B9002084F89E
:100A50006000204600F038F8022084F8610094E835
:100A600003404FF6BF72D4F80CC00368CFF6F8729B
:100A70001A40E369114340F2071219430160416BC8
:100A80009143A26941EA0E0111434163016C4FF6A3
:100A9000FF72914341EA0C010164416B226921F428
:100AA0004011636941EA025141EA43514163002028
:100AB0006066012184F8611010BD00BF01207047FD
:100AC000704700000000000080B582B041F20001D4
:100AD0000068C5F2002188421CBF02B080BD44F20C
:100AE000D4400022C5F60200016841F01001016007
:100AF0000068052100F01000019001985A2000F0D4
:100B00003FFE5A2002B0BDE8804000F029BE000040
:100B1000B0B5044600F014F940F200010546C2F2F7
:100B20000041621C097818BF0C4400BF00F008F9AE
:100B3000401BA042FAD3B0BD2DE9F04F86B08C46E1
:100B400042F20042C5F602020A2102909042DCF80D
:100B5000007008BF0921002F009100F0DD8002988D
:100B60004FF0000900F12642009902F1FF720126C0
:100B70004FEAB2224FF0000A092A4FF0000838BFAE
:100B800011460122CDF804C000910DE0DCF80070A0
:100B900008F1010837FA06F10AF1020A06F1010626
:100BA00009F1040900F0B880701E02FA00FE17EA8D
:100BB0000E01EBD0DCF804B00491BBF1120F00F28F
:100BC000A38002FA0BF717F0061F00F09D80029C2D
:100BD000032101FA0AF3A268DCF80C709A43D943A6
:100BE00007FA0AF31A43A26062684FEA1B134FEA3E
:100BF000480522EA0E0283401A4362604BF010035C
:100C0000E268122BDCF8083002EA010203FA05F36D
:100C1000039142EA0302E26014D16FF0030109F08C
:100C20001C0701EA50020F212244B940D2F820E00B
:100C3000DCF810302EEA0101BB40029C194311621E
:100C4000DCF804B00BF003012268039BA9401A40B2
:100C50005FEACB0341EA02012160DDF804C04FF0F6
:100C60000102049C92D544F2F44240F2084EC5F6CB
:100C70000202C5F6000E0F27116841F00201116053
:100C8000116801F00201059120F00301059A09F0B5
:100C90000C024FF0B04051F80E309740BB43009F1C
:100CA00007FA02F21A4341F80E2040F2040EC5F68C
:100CB000000EDEF87C10DCF8042041EA0403D703C0
:100CC00058BF21EA04039703CEF87C30DEF8801089
:100CD00041EA040358BF21EA0403D702CEF880306A
:100CE000016841EA040358BF21EA040392024FF06D
:100CF00001020360DEF8001041EA040358BF21EA54
:100D00000403CEF8003041E70321554601FA0AF703
:100D1000029CF94372E700BF06B0BDE8F08F000007
:100D2000002A08BF0904816170470000000000002C
:100D300041F20000C5F600400068000C704700005A
:100D400049F62C00C2F20140006870470000000024
:100D500090F84120202A03D190F84020012A01D1A7
:100D600002207047242280F841200268136823F093
:100D700001031360136823F480531360136819434D
:100D80001160116841F001011160202180F84110CB
:100D9000002180F840100846704700000000000065
:100DA00090F84120202A03D190F84020012A01D157
:100DB00002207047242280F841200268136823F043
:100DC00001031360136823F4706343EA0121116087
:100DD000116841F001011160202180F841100021CB
:100DE00080F840100846704710B310B5044690F8DC
:100DF000410028B9002084F84000204600F088FA1D
:100E0000242084F8410094E80910E2680168012A6E
:100E100021F00101016023F070610161816821F41A
:100E20000041816006D14CF4004181600AE000BFBE
:100E300001207047022A4CF40441816002D14FF432
:100E400000614160416804F1100C41F0007141F40F
:100E500000414160C16821F40041C1609CE80E106E
:100E6000114341EA0321C160216A41EA0C0101609A
:100E7000016841F00101016000206064202184F8D4
:100E80004110206384F8420010BD00000000000003
:100E90002DE9F04F83B0044690F8410020280DD191
:100EA000DDF83080B8F1000F0CD0DDF834A0BAF1D5
:100EB000000F07D094F8400001280BD1022003B0A6
:100EC000BDE8F08F4FF400706064012003B0BDE80E
:100ED000F08F00BF1F4615468946012084F8400068
:100EE000FFF72EFF21680646896909040AD500BF6D
:100EF000FFF726FF801B192800F2F0802068806928
:100F00000004F5D4222084F84100402084F84200F7
:100F1000204649462A463B464FF0000BC4F844B0F1
:100F2000C4F82480DDF83880A4F82AA0C4F834B0CE
:100F3000CDE9008602F004FA30B184F840B0012017
:100F400003B0BDE8F08F00BF608DB0F5807F11D396
:100F5000206849F600026FF39F29C7F600424168F6
:100F6000114042F200424944C8F2FF12114341606D
:100F7000FF2114E0618D49F600032068C7F60043A5
:100F8000CFB26FF39F2942681A4049EA07431A44D7
:100F9000A2F1FC42A2F55C4202F58032426049F6C1
:100FA000004540F2000BCFF6004508F101074FF075
:100FB000FF0AC0F2FF1B21858169490710D4002F69
:100FC0003ED0B8F1000F00F0878000BFFFF7B8FEF9
:100FD000801B404500F28280206881694907F5D571
:100FE000406A616A0870218D606A01306062481E43
:100FF0002085618D01396185618D002947D000040C
:1010000045D12068816909060DD43FB3B8F1000FBE
:1010100062D000BFFFF794FE801B40455ED8206879
:1010200081690906F6D5618DB1F5807F24D3A4F8D6
:1010300028A04168294041EA090141EA0B0125E065
:1010400081694907CCD4816949075CBF81695FEA3E
:101050004171C5D481694907F2D5C1E781690906A3
:10106000E1D4816909065CBF81695FEA0161DAD474
:1010700081690906F2D5D6E7618D2185C9B242683A
:101080002A4049EA0141114341F000714160608DFD
:1010900030B12068816949077FF591AFA0E700BFB3
:1010A00020464146324602F02BFA00287FF40DAF6D
:1010B000206820214EF60003C161CFF6006342682C
:1010C0001A40426084F84110002084F8420084F8FD
:1010D000400003B0BDE8F08FFFF732FE606C40F0D7
:1010E00020006064202084F84100002084F8420041
:1010F00084F84000012003B0BDE8F08F000000003C
:101100002DE9F04F83B0044690F8410020280DD11E
:10111000DDF83080B8F1000F0CD0DDF834A0BAF162
:10112000000F07D094F8400001280BD1022003B033
:10113000BDE8F08F4FF400706064012003B0BDE89B
:10114000F08F00BF1F4615468946012084F84000F5
:10115000FFF7F6FD21680646896909040AD500BF34
:10116000FFF7EEFD801B192800F2C280206880691D
:101170000004F5D4212084F84100402084F8420086
:10118000204649462A463B464FF0000BC4F844B07F
:10119000C4F82480DDF83880A4F82AA0C4F834B05C
:1011A000CDE9008602F03CF930B184F840B001206E
:1011B00003B0BDE8F08F00BF608D49F6004540F2F6
:1011C000000ACFF60045B0F5807FC0F2FF1A0BD3BE
:1011D0006FF39F2920684168294041EA090141EAEB
:1011E0000A014160FF200CE06FF39F29608D2168A8
:1011F000C3B24A682A4049EA03431A4342F00072E4
:101200004A6008F101074FF0FF0B20850EE000BF98
:10121000618D2185C9B242682A4049EA01411143E2
:1012200041F000714160608D002843D02046414666
:10123000324602F099F900287FF47FAF616A206896
:1012400011F8012B82626162618D01396185218D06
:1012500001392185628D002AE5D00904E3D1816935
:1012600009060CD4C7B1B8F1000F3FD0FFF768FDF5
:10127000801B40453CD8206881690906F6D5618D00
:10128000B1F5807FC4D3A4F828B04168294041EA71
:10129000090141EA0A01C5E781690906EFD48169BC
:1012A00009065CBF81695FEA0161E8D481690906CA
:1012B000F2D5E4E720464146324602F021F9002803
:1012C0007FF43BAF206820214EF60003C161CFF6CA
:1012D000006342681A40426084F84110002084F89C
:1012E000420084F8400003B0BDE8F08FFFF728FD0E
:1012F000606C40F020006064202084F841000020F1
:1013000084F8420084F84000012003B0BDE8F08F6B
:1013100010B5B6B002A90446081DB821FFF730F891
:1013200045F600012068C4F20001884202D036B0C0
:1013300010BD00BF0820029002A800F089FA08B191
:10134000FFF79EF844F2E04431A9C5F60204206894
:1013500040F080002060206800F0800031903198DB
:1013600030203190122032900020CDE9330004204B
:10137000359041F60040C5F60200FFF7DDFBA0689E
:1013800040F48000A060A06800F480000190019803
:1013900036B010BD0000000040F2000049F62C01FC
:1013A000C2F20040C2F2014100780A6810440860AD
:1013B000704700000000000080B5032000F010FA24
:1013C00001F00AFA44F2184148F64813C5F6020142
:1013D000C0F603030A68096801F00F01C2F3032293
:1013E000595C9A5C01F01F0102F01F02D04040F2EC
:1013F0000C02C2F2004220FA01F1116040F2080131
:10140000C2F2004108600F2000F00AF800281CBF5B
:10141000012080BD00F08CF9002080BD000000009C
:10142000B0B58AB00F2842D80446362000222146A3
:10143000002500F0A5F9362000F092F940F20400F2
:10144000C2F20040046044F2E840C5F602000168C0
:1014500041F010010160006801A900F01000029045
:10146000029802A801F05CF9079C002C18BF012427
:1014700001F082F94DF68361A040C4F21B3141F2C4
:101480000002A0FB010140F6FC00C2F200404FF058
:10149000FF33C4F20002026003EB9141C0E9011581
:1014A00040F2E731C0E9031501F082FD10B10120DF
:1014B0000AB0B0BD40F6FC00C2F2004001F0ACFD45
:1014C0000AB0B0BD000000002DE9F041044690F8DC
:1014D000A00001284FF0020008BFBDE8F0813423CE
:1014E0004FF0010884F8A08084F8A10002FB0340BB
:1014F000D1E900CED1E90267D1E90435C0E912355E
:10150000C0E91067C0E90ECED1E906CED1E9086581
:10151000D1E90A37C0E91837C0E91665C0E914CE29
:101520000B6B8366206802F063F82068C0F82480A3
:10153000002084F8A18084F8A000BDE8F0810000BC
:10154000002869D010B5044690F8A10028B9002001
:1015500084F8A000204600F063F8022084F8A1007F
:10156000D4E9000CD4E90223816921F07041816142
:1015700042EA0C01226919431143826911438161D6
:101580004FF600028168CFF2000211408160D4E979
:10159000051343EA0141836819438160C168114022
:1015A000C160D4E9071343EA0141C3681943C1602C
:1015B000016911400161D4E9091343EA014103695A
:1015C00019430161416911404161D4E90B1242EABA
:1015D000014142691143416194F8351094F8362075
:1015E000C36A03F07F43C362120494F8343042EAC2
:1015F0000121C26A19441143C162416B41F00601E5
:101600004163816941F0010181610020C4F8A400B7
:10161000012184F8A11010BD0120704700000000D6
:101620002DE9F043B5B0044601A80430B8210025E7
:101630003095CDE93355CDE93155FEF7A1FE41F2A4
:1016400000012068C5F20001884203D035B0BDE832
:10165000F08300BF4FF00050019001200A901E203F
:101660000B900F200E904FF440600F9001A84FF0A8
:101670000208CDE90C88119500F0EAF808B1FEF7F0
:10168000FFFE44F2E04042F20004C5F60200C5F657
:10169000020430AD4FF000094168032641F0080113
:1016A000416041680E2701F008010091009901682E
:1016B00041F480610160016801F48061009100994A
:1016C000016841F400710160016801F4007100914A
:1016D0000099016841F4807101600068294600F4B6
:1016E000807000900098FF20CDE9300804F500607C
:1016F000CDF8C89033963497FFF71EFA30A948F614
:101700007C60CDE9336781E8010304F580602946F8
:10171000FFF712FA30A94FF4E040CDE9336781E8D2
:10172000010320462946FFF707FA35B0BDE8F083EC
:1017300081B044F2F4400022C5F60200016841F095
:101740000201016000680F2100F0020000906FF0BC
:101750000100009B01B000F013B800000000000081
:10176000002848BF704700F01F01012202FA01F172
:101770004EF200124009CEF2000242F820107047EB
:10178000B0B54EF60C5C00F00F05CEF2000C043D37
:101790006544DCF800304FF0FF3CC3F3022E8EF0BE
:1017A0000703042B28BF0423BEF1030438BF002421
:1017B0000CFA03F3B0F1FF3F21EA030105F10C033A
:1017C00000F160450CFA04F0C8BF05F56443A14080
:1017D00022EA0000084300011870B0BD00000000BC
:1017E0004EF60C514FF6FF03CEF200010A681A4084
:1017F00060F30A2242F0806040F0FD70086070479C
:10180000B0B544F60C05C5F60205296849072968F4
:1018100006D401F00701081A18BF0120B0BD00BFAF
:1018200021F0070108432860FFF78AFA044600BF49
:1018300055F8080C800407D4FFF782FA001BB0F5B6
:101840007A7FF5D90120B0BD0020B0BD00000000B6
:101850002DE9F0470446C07844F22C480007C5F64D
:10186000020845D5606E4FEA305103290CD8DFE8F5
:1018700001F003112F3800BFD8F8001041F40031F7
:10188000C8F800102DE000BF01266078C0070AD01C
:1018900032E000BF201D022102F08EF90646F8B1A9
:1018A0006078C00728D135463746607880073BD43A
:1018B0003E466078400750D4B1466078000700F19A
:1018C00067804F46E078800740F15F817AE000BF93
:1018D00004F12400022102F003FA06460028DFD1B9
:1018E000606ED8F8241021F440110843C8F8240091
:1018F00000266078C007D6D0606D042800F2A6806C
:101900003546DFE800F003ABB10A0A00D8F8000062
:10191000354640F40030C8F80000002D2F4600F096
:10192000AD8060788007C3D5A06D4FEAB010042861
:1019300000F2B480DFE800F004BAC00A0A0000BF79
:10194000D8F8000040F40030C8F80000002D2E4602
:1019500000F0BC8060784007AED5D4F8A4004FEA10
:101960007050042800F2C280DFE800F004C8CE0AFC
:101970000A0000BFD8F8000040F40030C8F80000AA
:10198000002DA94600F0CA80607800077FF599AF66
:10199000D4F8A8004FEA3060042800F2CF80DFE8D6
:1019A00000F003D5DB090900D8F8000040F400304E
:1019B000C8F80000002D2F4600F0D880E07880079E
:1019C00040F1E380A06C4FEA301003281AD8DFE81A
:1019D00000F003212B0300BF2E466DB36078C006D4
:1019E00000F1D88037466078800600F1ED803E46F1
:1019F0006078400600F1FC8037466078000640F1D0
:101A0000BA8109E1012501266078C00600F1C28093
:101A1000E8E700BFD8F8000040F40030C8F8000044
:101A2000002D2E46DAD107E0201D022102F0C4F875
:101A30000546002D2E46D1D1D8F82000A16C20F00B
:101A4000300000250843C8F820009EE0012501274A
:101A5000607880073FF568AF2AE700BF201D0021AE
:101A600002F0AAF805E000BF04F12400002102F012
:101A700037F90546002D2F467FF453AFD8F82400E0
:101A8000616D20F0070000250843C8F824003746A0
:101A9000607880077FF50CAF46E700BF012501267F
:101AA000607840073FF559AF06E700BF201D0021D1
:101AB00002F082F805E000BF04F12400002102F0EA
:101AC0000FF90546002D2E467FF444AFD8F82400C8
:101AD000A16D20F4E07000250843C8F824003E46BC
:101AE000607840077FF5E8AE37E700BF01254FF08B
:101AF0000109607800073FF54BAFE2E6201D0021A9
:101B000002F05AF805E000BF04F12400002102F0C1
:101B1000E7F80546002DA9467FF436AFD8F82C002B
:101B2000D4F8A41020F4600000250843C8F82C0065
:101B3000B146607800077FF5C4AE29E7012501278B
:101B4000E07880073FF53EAF1FE000BF201D002179
:101B500002F032F805E000BF04F12400002102F099
:101B6000BFF80546002D2F467FF428AFD8F82C008B
:101B7000D4F8A81020F0E06000250843C8F82C0035
:101B80004F46E07880073FF51DAF3E466078C006BF
:101B90007FF528AFE06D4FEA3030042800F26C800A
:101BA000DFE800F00472780A0A0000BFD8F80000ED
:101BB00040F40030C8F80000002D2F4600F074807B
:101BC000607880067FF513AF206E4FEA304005281D
:101BD00000F27A80DFE800F004808A04040400BF89
:101BE000002D2E4600F08C80607840067FF504AF13
:101BF000D4F8AC004FEA3070052800F29180DFE89D
:101C000000F00397A1030303002D2F4600F0A480EA
:101C10006078000640F1AF80E06E58B1B0F1005F2F
:101C200010D0B0F1805F1FD1D8F8000040F4003030
:101C3000C8F800002E466DB1E078C00700F0CF80F4
:101C40009DE000BF201D012101F0B6FF0546002DDB
:101C50002E46F1D1D8F82400E16E20F04050002546
:101C60000843C8F8240086E001250126E078C00773
:101C700040F08580B3E000BF012501276078800631
:101C80003FF5A2AFB3E600BF201D002101F094FF95
:101C900005E000BF04F12400002102F021F8054610
:101CA000002D2F467FF48CAFD8F82400E16D20F48E
:101CB000E04000250843C8F82400374660788006D5
:101CC0007FF595AE80E700BF0125012660784006CC
:101CD0003FF58EAF90E600BF201D012101F06CFFA3
:101CE0000546002D2E467FF47FAF09E004F1240065
:101CF000012101F0F5FF0546002D2E467FF474AF5B
:101D0000D8F82400216E20F4E02000250843C8F80C
:101D100024003E46607840067FF56EAE68E700BF5F
:101D200001250127607800063FF576AF23E000BF6C
:101D3000201D012101F040FF0546002D2F467FF4B4
:101D400067AF09E004F12400012101F0C9FF054655
:101D5000002D2F467FF45CAFD8F82C00D4F8AC10DF
:101D600020F0E04000250843C8F82C003746607892
:101D700000063FF551AF3E46E078C0072FD0606CBB
:101D8000032809D8DFE800F002101A02A946EDB1D5
:101D9000A07840062AD426E001254FF00109A0785A
:101DA000400620D522E000BFD8F8000040F4003003
:101DB000C8F80000002DA946EAD107E0201D022145
:101DC00001F0FAFE0546002DA946E1D1D8F8200021
:101DD000616C20F0030000250843C8F82000B146DC
:101DE000A078400602D44F4619E000BFD8F8D403CB
:101DF00040F48070C8F8D403FEF7A2FF064600BF87
:101E0000D8F8D403C00507D4FEF79AFF801B6428D6
:101E1000F6D90325032702E0002D2F4664D0207851
:101E2000C00700F0B680A06F4FEAF000052800F26E
:101E30008D80DFE800F003919B030303002D2E4605
:101E400000F09E802078800700F1A8803746207837
:101E5000400700F1B7803E462078800600F1C88038
:101E600037462078400600F1DB803E4620780006A9
:101E700000F1EE8037462068010740F10181D4F877
:101E80008000B0F5805F09D104F12400022101F047
:101E900027FF002818BF0127D4F88000D8F82810A1
:101EA00021F440510843C8F828002068C10640F1D9
:101EB000EA80D4F89400B0F5807F09D104F12400C1
:101EC000022101F00DFF002818BF0127D4F894006B
:101ED000D8F82C1021F440710843C8F82C00206871
:101EE000000340F1F780D0E0D8F84410D4F8B000F7
:101EF000414011F4407F11D0D8F84410D8F8442064
:101F000042F48032C8F84420D8F8442021F44071CB
:101F100022F48032C8F84420C8F84410B0F5807F1D
:101F200040F0AC82FEF70CFF064641F2883A0325EA
:101F3000032700BFD8F84400800700F19D82FEF718
:101F4000FFFE801B5045F5D969E700BF012501263A
:101F50002078800722D479E7201D012101F02CFE92
:101F60000546002D2E467FF46DAF09E004F12400F4
:101F7000012101F0B5FE0546002D2E467FF462AF2B
:101F8000D8F82800A16F20F0380000250843C8F8D1
:101F900028003E46207880077FF558AF606F0528FF
:101FA00000F28E81DFE810F0060094019E01060029
:101FB00006000600002D2F4600F09E812078400785
:101FC0007FF549AFD4F89000052800F2A581DFE83D
:101FD00010F00700AB01B50107000700070000BFC4
:101FE000002D2E4600F0B481207880067FF538AFB2
:101FF000D4F88C004FEA3070052800F2B981DFE890
:1020000010F00700BF01C90107000700070000BF6B
:10201000002D2F4600F0C881207840067FF525AFBF
:10202000D4F898004FEAB020052800F2CD81DFE80F
:1020300010F00700D301DD0107000700070000BF13
:10204000002D2E4600F0DC81207800067FF512AFCF
:10205000D4F89C004FEA7030052800F2E181DFE8F7
:1020600010F00700E701F10107000700070000BFBB
:10207000002D2F4600F0F081206801073FF5FFAEEC
:10208000C1063FF516AF000324D5D4F8A000B0F583
:10209000003F0FD0B0F5803F06D0B8BB201D002117
:1020A00001F08AFD05E000BF04F12400022101F0E7
:1020B00017FE05462E461DB1A07840073FD50DE01E
:1020C000D8F82C00D4F8A01020F4403000250843A4
:1020D000C8F82C003E46A078400730D5D4F88400DC
:1020E000B0F5401F0BD0B0F5001F15D0B0F5801F24
:1020F00070D1D8F8000040F40030C8F800002F4636
:102100009DB1A078C0071ED169E000BF012601255E
:10211000A0784007E2D412E004F12400012101F08C
:10212000DFFD0546002D2F46EBD1D8F82800D4F866
:10213000841020F4401000250843C8F828003746D2
:10214000A078C0074BD0E06CB0F5803F2AD0D8BB58
:10215000D8F8000040F40030C8F800002E464DB317
:10216000206881003FD4810348D4C1025DD4C100FE
:1021700065D481026FD4410078D4B0F1FF3F40F3C1
:102180008680000208D5D8F82800D4F8881020F4FA
:1021900040000843C8F82800002E18BF012630462A
:1021A000BDE8F087201D022101F006FD0546002D47
:1021B0002E46D5D1D8F82000E16C20F480300025DF
:1021C0000843C8F820000AE00126012520688100A4
:1021D000C9D508E001270125A078C007B3D13E4644
:1021E00020688100BFD504F12400022101F078FDB0
:1021F000002818BF012620688103B6D5E16F6FF073
:10220000010202EB3122022A0AD34FEA31223AB10B
:10221000012A07D1D8F8002042F40032C8F8002083
:10222000002D41D00126C102A1D5D8F82410226F7B
:1022300021F000411143C8F82410C10099D558F885
:102240001C1CD4F8B42021F48041114348F81C1C14
:1022500081027FF590AFD8F82410A26E21F0807132
:102260001143C8F8241041007FF587AF58F81C1CB3
:1022700021F4004148F81C1CD4F8B81058F81C2C64
:10228000114348F81C1CB0F1FF3F3FF77AAFD8F874
:102290002010226D21F040511143C8F82010000297
:1022A0007FF57AAF6FE700BFD8F8282022F440729C
:1022B0001143C8F82810C1027FF559AFB5E700BF38
:1022C00001250127207840073FF57CAEC3E500BF1C
:1022D000201D012101F070FC0546002D2F467FF4E2
:1022E0006DAE09E004F12400012101F0F9FC05467E
:1022F000002D2F467FF462AED8F82800616F20F0E1
:10230000070000250843C8F8280037462078400712
:102310007FF5A1AD56E600BF012601252078800695
:102320003FF566AE9CE500BF201D012101F044FC95
:102330000546002D2E467FF457AE09E004F1240037
:10234000012101F0CDFC0546002D2E467FF44CAE58
:10235000D8F82C00D4F8901020F00700002508438E
:10236000C8F82C003E46207880067FF579AD3FE620
:1023700001270125207840063FF552AE75E500BFE4
:10238000201D002101F018FC0546002D2F467FF48A
:1023900043AE09E004F12400022101F0A1FC05464E
:1023A000002D2F467FF438AED8F82800D4F88C10D2
:1023B00020F0E04000250843C8F828003746207880
:1023C00040067FF552AD2BE6012601252078000658
:1023D0003FF53EAE4EE500BF201D002101F0ECFBB5
:1023E0000546002D2E467FF42FAE09E004F12400AF
:1023F000022101F075FC0546002D2E467FF424AE27
:10240000D8F82C00D4F8981020F4E05000250843A8
:10241000C8F82C003E46207800067FF52BAD17E665
:1024200001270125206801077FF52AAE27E500BFB7
:10243000201D002101F0C0FB0546002D2F467FF432
:102440001BAE09E004F12400022101F049FC05461D
:10245000002D2F467FF410AED8F82C00D4F89C1035
:1024600020F4604000250843C8F82C003746206857
:1024700001077FF505AE02E5D4F8B0004FF6CF7343
:1024800058F81C2CC0F2FF0300F4407122F47C5277
:1024900003EA10136FF31F30B1F5407F08BF1A43F2
:1024A000002548F81C2CD8F844100843C8F844000C
:1024B000FFF799BC000000002DE9F04381B000282F
:1024C00000F02A8142F200080446C5F2002889463D
:1024D000D8F8000000F00F0088420ED2D8F80000B3
:1024E00020F00F0040EA0900C8F80000D8F800000A
:1024F00000F00F00484540F00F81206844F2184773
:102500004107C5F602070AD521693A6802F0700250
:10251000914204D93A6822F07002114339600107F0
:102520000AD561697A6802F07002914204D97A682A
:1025300022F0700211437960C1060AD5A1697A6858
:1025400002F4E062914204D97A6822F4E062114315
:10255000796081060AD5E169BA6802F07002914299
:1025600004D9BA6822F070021143B96010F0020178
:102570000AD0E2683B6803F00F039A4204D93B6833
:1025800023F00F031A433A60C20746D0386820F49C
:102590007061D4E90102012841EA0201396009D0E1
:1025A00003280DD0022811D157F8181C890340F1D7
:1025B000B38010E057F8181CC90540F1AD800AE05F
:1025C00057F8181C890140F1A78004E057F8181C3F
:1025D000490740F1A18057F8081C21F00701084382
:1025E00047F8080CFEF7ACFB064641F2883500BF01
:1025F00057F8080C616800F03800B0EBC10F09D043
:10260000FEF79EFB801BA842F2D9032001B0BDE873
:10261000F08300BF206800F0020151B1E1683A6820
:1026200002F00F02914204D23A6822F00F021143E5
:102630003960D8F8001001F00F0149450DD9D8F8DC
:10264000001021F00F0141EA0901C8F80010D8F884
:10265000001001F00F0149455ED141070AD52169FB
:102660003A6802F07002914204D23A6822F0700295
:102670001143396001070AD561697A6802F0700276
:10268000914204D27A6822F0700211437960C10647
:102690000AD5A1697A6802F4E062914204D27A68AC
:1026A00022F4E0621143796080060AD5E069B968D6
:1026B00001F07001884204D2B96821F0700108432A
:1026C000B86000F089F8396848F648133A68C0F6EF
:1026D0000303C1F3032102F00F02595C9A5C01F07D
:1026E0001F0120FA01F102F01F0040F20C0221FA52
:1026F00000F0C2F20042106040F2040040F2080212
:10270000C2F20040C2F200420068116001B0BDE8B0
:10271000F043FEF785BE00BF012001B0BDE8F083A5
:102720003F22026044F21842C5F6020252F8083C09
:1027300003F007034360136803F470638360136856
:1027400003F00F03C360136803F070030361536861
:1027500003F070034361536803F4E063836192689C
:1027600002F07002C26142F20000C5F2002000686F
:1027700000F00F000860704780B500F02DF844F2BB
:10278000184C48F64811C5F6020CC0F60301DCF8F7
:102790000020DCF8003003F00F03C2F30322CB5C0F
:1027A0008A5C02F01F02D04003F01F0240F20C03CB
:1027B00020FA02F2C2F200431A6040F20803C2F2A9
:1027C00000431860DCF80400C0F30210085C00F05D
:1027D0001F0022FA00F080BD44F20041C5F602015C
:1027E0000869C0F3C200032810D002282CD088BB8F
:1027F0000868800649F20000C0F2D03058BF704728
:102800000968C1F3C101C840704700BF8A6A886A7D
:10281000C0F3051CC86ABCF1000F4B6B20D0C3F39A
:10282000CC0300F00100584302F00302022A00EE3C
:10283000100AB8EE400A15D0C2B90868800619D44B
:102840009FED281A23E000BF47F64000C0F27D103C
:10285000704700BF40F60010C0F23D00704700BF57
:10286000002070479FED1E1A11E000BF9FED1B1A5C
:102870000DE000BF086849F20002C0F2D032C0F398
:10288000C10022FA00F001EE100AB8EE411A086BFE
:102890009FED153A6FF35F2002EE100A086BC0F34C
:1028A0004620B8EE422A013000EE032A00EE10CA9C
:1028B000B7EE003AB8EE400A81EE000A32EE031A93
:1028C00020EE010A01EE100AB8EE411A80EE010A6C
:1028D000BCEEC00A10EE100A704700BF0024744A14
:1028E00020BCBE4B0024744C0000003900000000E6
:1028F000F0B581B0002800F043810446007844F22E
:102900000046C007C5F6020612D0306900F0380153
:10291000B06A102905D018292ED100F00300022832
:102920002AD13068800303D56068002800F0288130
:102930002078800740F19380306910F03801B06A48
:102940002CD0182908BF5FEA807027D0E068316872
:10295000002841D021F0190108433060FEF7F0F95A
:10296000054600BF306840071FD4FEF7E9F9401B59
:102970000228F7D953E100BF606800283ED0B0F5C7
:10298000A02F53D0B0F5803F54D0306820F4803071
:102990003060306820F480204FE000BF306840078E
:1029A00003D5E068002800F0EB80FEF7C1F941F2A2
:1029B0000301884208D820697168402821F47C31DD
:1029C0004AD141F4003049E07068216920F0FE40AE
:1029D00040EA016042E000BF21F001003060FEF7F4
:1029E000AFF905463068400739D5FEF7A9F9401B15
:1029F00002284FF00300F5D9EBE100BF306820F466
:102A000080303060306820F480203060FEF798F924
:102A1000054600BF306880037FF58AAFFEF790F966
:102A2000401B64284FF00300F4D9D2E1306840F431
:102A300080203060306840F480303060FEF780F9EC
:102A4000054600BF306880033FF572AFFEF778F9A6
:102A5000401B6428F6D9E2E041EA0030706020783B
:102A6000C00652D5306900F03801B06A082905D097
:102A7000182919D100F00300012815D13068C005CC
:102A800002D5E06980287BD1FEF752F941F20301BB
:102A900088421DD8206A7168202821F0F84131D180
:102AA00041F0804030E000BFE0690028306817D076
:102AB00040F080003060FEF743F905463068C005FD
:102AC000E2D4FEF73DF9401B0228F7D9A7E000BF8A
:102AD000F068216A20F07C5040EA0160F06014E068
:102AE00020F080003060FEF72BF905463068C00505
:102AF0000BD5FEF725F9401B02284FF00300F5D94E
:102B000067E100BF41EA80607060207800073BD435
:102B1000207880064CD4207840075DD4656A65B380
:102B2000306900F03800182840F09E80012DB16A0D
:102B3000306B25D001F00302A36A9A4220D1C1F381
:102B40000511E26A91421BD10146226B6FF35F21AE
:102B5000013A914214D1C0F34622616B01398A4295
:102B60000ED1C0F30642A16B01398A4208D1C0F3ED
:102B70000660E16B0139884202D1002001B0F0BD4E
:102B8000012001B0F0BD00BF60690028706F37D030
:102B900040F001007067FEF7D3F80546706F8007BC
:102BA000B6D4FEF7CDF8401B0228F7D937E000BFB6
:102BB000A0690028306845D040F480503060FEF7AE
:102BC000BFF8054630688004A5D4FEF7B9F8401B6D
:102BD0000228F7D923E000BFD6F8000440F4807043
:102BE000C6F80004FEF7ACF8054600BFD6F80004AE
:102BF000C00517D4FEF7A4F8401B6428F6D90EE0F0
:102C000020F001007067FEF79BF80546706F8007A3
:102C10007FF57EAFFEF794F8401B0228F6D903201B
:102C200001B0F0BDA068002840D0052858D0012888
:102C30005AD0306F20F001003067306F20F0040070
:102C400055E000BF20F480503060FEF779F805466B
:102C5000306880047FF55FAFFEF772F8401B0228F2
:102C60004FF00300F4D9B4E0306820F08070306099
:102C7000FEF766F8022D05460CD100BF30688001D2
:102C800048D5FEF75DF8401B02284FF00300F5D948
:102C90009FE000BF306880017FF56FAFFEF750F80E
:102CA000401B02284FF00300F4D992E0306F20F06F
:102CB00001003067306F20F004003067FEF740F805
:102CC000054641F2883700BF306F80077FF526AF99
:102CD000FEF736F8401BB8424FF00300F4D978E015
:102CE000306F40F004003067306F40F00100306713
:102CF000FEF726F8054641F2883700BF306F80079F
:102D00003FF50CAFFEF71CF8401BB8424FF0030034
:102D1000F4D95EE004F12807B06A40F2F331884349
:102D20008ECF0843591E40EA02104FF47E426FF3E3
:102D30005F21B06202EB47204FF4FE0280B2E36BEA
:102D40000844A16B02EB01414FF0FE4201F4FE0189
:102D500002EB0362084402F0FE4108443063F06A6B
:102D60004FF6F87120F00100F062706BA26C88439E
:102D700040EAC2007063F06A216C20F00C00084346
:102D8000F062F06A616C20F002000843F062F06AC1
:102D900040F48030F062F06A40F40030F062F06A93
:102DA00040F48020F062F06A40F00100F062306888
:102DB00040F080703060FDF7C3FF0446306880014A
:102DC0003FF5DBAEFDF7BCFF001B02284FF0030010
:102DD000F4D901B0F0BD000020B3B0B5044690F8BE
:102DE0002C000D4628B9002084F82D00204600F064
:102DF0001BF8022084F82C002068211DFDF744FBFD
:102E0000D4E900022946FDF7AFFB44F20000C5F209
:102E10000020016841F000410160012084F82C008D
:102E20000020B0BD012070472DE9F047B4B040F25A
:102E3000F840C2F20040017800296FD16C464FF093
:102E4000010880F80080201DB821FDF799FA4FF0A5
:102E5000807000902046FEF7FBFC08B1FDF710FBE8
:102E600044F2D44040F60004C5F60200C5F6020460
:102E70002FAD4FF0020901684FF0000A41F4805174
:102E800001600068294600F480502F902F984FF67B
:102E900083702F9004F50060CDF8C0900327CDF823
:102EA000C4A00C2632973396FDF746FE2FA948F2B0
:102EB0003710CDE9327681E8010604F580502946C5
:102EC000FDF73AFE2FA94CF20370CDE9327681E886
:102ED000010604F580602946FDF72EFE2FA94FF666
:102EE0003F00CDE9327681E8010604F540602946CD
:102EF000FDF722FE2FA82946CDE9327680E80007AB
:102F00002046FDF719FE2FA9C020CDE9327681E8D1
:102F1000010604F5A0502946FDF70EFE34B0BDE8C9
:102F2000F087000000000000B0B5054690F82C00C6
:102F3000022801D10220B0BD95F82C0001240128FF
:102F400008D1022085F82C002868FDF7E9FA85F8F9
:102F50002C4000242046B0BD70B5054690F82C00EA
:102F6000022801D1022070BD00F0FB0001240128DD
:102F70000DD1022085F82C0028680E46FDF7DCFAFA
:102F80003068022808BF052485F82C40002420461C
:102F900070BD00000000000070470000000000004D
:102FA00070470000000000007047000000000000B3
:102FB00060B310B5044690F83D0028B9002084F8AD
:102FC0003C00204600F024F8022084F83D002068F0
:102FD000211D01F00DF8012084F8480084F83E001E
:102FE00084F83F0084F8400084F8410084F84200EF
:102FF00084F8430084F8440084F8450084F84600CF
:1030000084F8470084F83D00002010BD012070477F
:10301000704700000000000090F83D10012921D108
:10302000022180F83D10016840F6FF30C4F2000034
:103030008142C86840F00100C86015DD4FF6FF709E
:10304000C4F2000081421FDC40F60040C4F20000E0
:10305000814224D041F60000C4F2000081421ED01B
:103060002AE000BF01207047B1F1804F17D040F235
:103070000040C4F20000814211D040F60000C4F2CA
:10308000000081420BD017E040F20040C4F2010082
:10309000814204D00020C4F2010081420CD10722F9
:1030A0008868C0F2010202400020062A18BFB2F56B
:1030B000803F01D1704700BF086840F00100086000
:1030C0000020704700000000704700000000000072
:1030D00010B5044600680169890744BFC1685FEA0A
:1030E00081713FD40169490744BFC1685FEA4171FA
:1030F00044D40169090744BFC1685FEA01714BD438
:103100000169C90644BFC1685FEAC16150D4016961
:10311000C9071CBFC1685FEAC17157D101690906BF
:1031200044BFC1685FEA016158D40169C90544BF61
:10313000C1685FEA016159D40169490644BFC168A9
:103140005FEA41615AD40169890646BFC1685FEAF6
:10315000816110BD6FF0200101612046BDE8104083
:10316000FFF722BF6FF00201016101212177806921
:1031700080074BD02046FFF7A7FF4DE06FF004011A
:10318000016102212177806910F4407F48D02046F8
:10319000FFF79AFF4AE000BF6FF0080101610421C8
:1031A0002177C069800745D02046FFF78DFF47E0B3
:1031B0006FF01001016108212177C06910F4407F90
:1031C00042D02046FFF780FF44E000BF6FF00101CE
:1031D0000161204600F04CF820689FE76FF0800105
:1031E00001612046FFF7DCFE20689EE76FF48071E6
:1031F00001612046FFF7D0FE20689DE76FF0400197
:103200000161204600F040F820689CE7204600F06D
:1032100027F8204600F028F800202077206861E792
:10322000204600F01DF8204600F01EF80020207710
:1032300020685EE7204600F013F8204600F014F8FE
:103240000020207720685BE7204600F009F8204640
:1032500000F00AF800202077206858E700000000FE
:1032600070470000000000007047000000000000F0
:1032700041F200010068C4F20001884218BF7047A3
:10328000FEF78AB800000000704700000000000050
:10329000FEE700000000000070B504460068836986
:1032A000DB0601D4002070BD0E468169890620D45A
:1032B00086B1711C12D1816989061AD48169890687
:1032C0005CBF81695FEA816113D481698906F2D5A7
:1032D0000FE000BFFDF734FD202022E0154600BFBF
:1032E000FDF72EFD401BB04228D820688169890671
:1032F000F6D51021C1612021C1618169890701D5FD
:10330000002181628169C90703D1816941F001010E
:1033100081614EF600024168CFF6006211404160C3
:103320000420616C08436064202084F84100002080
:1033300084F8420084F84000012070BD2020F0E7AE
:103340002DE9F041044600681D4649F60003EEB23F
:1033500017464268C7F600436FF39F211A4041EABF
:103360000641DDF81C801144069E41F000414246B2
:1033700041F4005141602046314600F0F5F818B1A3
:103380000120BDE8F08100BF012D09D02068390A75
:10339000424681622046314600F0E6F80028EFD12F
:1033A000F8B2216888628869400621D426B3701C6F
:1033B00016D1886940061BD4886940065CBF8869BD
:1033C0005FEA406014D4886940064FF00000F0D5F1
:1033D00021E000BF2068806940064FF000001AD449
:1033E000FDF7AEFCA0EB0800B042F3D906E000BF49
:1033F0000020BDE8F08100BFFDF7A2FC606C40F04A
:1034000020006064202084F84100002084F84200FD
:1034100084F840000120BDE8F081000000000000B9
:103420002DE9F041044600681D4649F60003EEB25E
:1034300017464268C7F600436FF39F211A4041EADE
:103440000641DDF81C801144069E41F001414246D0
:1034500041F4005141602046314600F085F818B132
:103460000120BDE8F08100BF012D09D02068390A94
:10347000424681622046314600F076F80028EFD1BE
:10348000F8B2216888628869000621D426B3701CCE
:1034900016D1886900061BD4886900065CBF88695C
:1034A0005FEA006014D4886900064FF00000F0D590
:1034B00021E000BF2068806900064FF000001AD4A8
:1034C000FDF73EFCA0EB0800B042F3D906E000BFD8
:1034D0000020BDE8F08100BFFDF732FC606C40F0D9
:1034E00020006064202084F84100002084F842001D
:1034F00084F840000120BDE8F081000000000000D9
:1035000070B51546044689B10E4600BF2068806933
:10351000800617D4204631462A46FFF7BDFE78B90B
:10352000FDF70EFC401BB042F0D90FE02068806927
:10353000800607D4002120462A46FFF7ADFE18B1C9
:10354000012070BD002070BDFDF7FAFB606C40F0FB
:1035500020006064202084F84100002084F84200AC
:1035600084F84000012070BD70B504460068806991
:10357000800710D415460E4611B3701C17D100BF3A
:103580004FF0FF3120462A46FFF786FEF0B920684B
:1035900080698007F4D5002070BD00BFFDF7D0FB27
:1035A000401BB04216D8206880698007F3D42046BB
:1035B00031462A46FFF770FE0028EFD006E000BF34
:1035C000002120462A46FFF767FE08B1012070BDA2
:1035D000FDF7B6FB606C40F020006064202084F8AA
:1035E0004100002084F8420084F84000012070BDB2
:1035F000F0B500EBC2120027D1E900CED1E90234C8
:10360000C568D2F8886006F47046C2F88860C6685B
:10361000C0F6FF773D40C6F30B46664405EB0E450A
:1036200001363543C2F88850C568D2F88C606FF314
:10363000DF2506F47046C2F88C602C44C0686FF336
:10364000DF201844013040EA0440C2F88C00D2F870
:10365000940020F00700C2F894000B69C2F894307F
:1036600091F83200072B91F831404FEA00408D6904
:10367000D2F89C604FF00006C2F89C6040EA04203B
:1036800091F8307040EA056040F207743844C2F89F
:103690009C00D2F8980020F0FF00C2F8980048691A
:1036A000C2F89800D2F8A00020EA0400C2F8A000F6
:1036B000D1E9070440EA0400C2F8A00002F1840046
:1036C000D2F8AC40C2F8AC604C6AC2F8AC4007D843
:1036D00048F6F832C0F6030252F8232001E000BF9A
:1036E0000122C36AAEEB0C0703F0E023C3628B6ACE
:1036F000C96A53437A43073242EA0342C262026B09
:1037000040F2FF739A4302630163016841F00101D3
:103710000160F0BD0000000080B540F2A07041F2F1
:103720000001C2F20040C5F2002102220160002126
:103730004160C0E90221C0E91112C0E91311C0E9DA
:103740001511C165FDF77CF908B1FCF799FE40F24F
:10375000A0700121C2F20040FDF76AF8002808BFFE
:1037600080BDBDE88040FCF78BBE0000000000007B
:103770002DE9F0418AB040F2441444F24011C2F203
:103780000044C5F20021204608250522039240F896
:10379000101F10210161402141614FF4C07181610E
:1037A0004FF4006101624FF4805141624FF40051C7
:1037B00081620221CDE901150622049203220791BC
:1037C000CDE9052101A90126C0E90166C5600027F0
:1037D000C761FFF701FB08B1FCF752FEC4E90065C1
:1037E00004F110054FF6FF7228462146C4E902672E
:1037F000FFF7B2FB099648F2A0610897C0F20101F9
:103800000998484302E000BF0898013808900898DA
:1038100088B1089801380890089860B10898013874
:103820000890089800281FBF089801380890089849
:1038300018BF0028E8D1022020604FF6FF7228460A
:103840002146082666604FF00108C4F8088000276A
:10385000E760FFF781FB03204FF6FF72C4E9000623
:1038600028462146C4E90267FFF776FB04204FF69D
:10387000FF7284E841014FF40C70E0602846214655
:10388000FFF76AFB4FF44E712846FFF74DFB0AB075
:10389000BDE8F0810000000080B543F6396048F6CD
:1038A0001842C0F60000C0F6030200212BF0E8FD2C
:1038B00040F25061C2F20041086080BD000000008B
:1038C0002DE9F04F85B044F2E04040F20049C5F6E2
:1038D0000200C5F6020909F5A055012201684FF062
:1038E000800A41F48061016001684FF0010801F431
:1038F000806100910099016841F010010160016848
:1039000001F0100100910099016841F4007101601B
:10391000016801F4007100910099016841F0010112
:103920000160016801F0010100910099016841F016
:1039300040010160016801F04001009100990168B7
:1039400041F008010160016801F00801009100994F
:10395000016841F020010160016801F0200100913F
:103960000099016841F480710160016801F480717F
:1039700000910099016841F080010160016801F047
:10398000800100910099016841F004010160016823
:1039900001F0040100910099016841F00201016009
:1039A0000068802100F00200009000982846FDF792
:1039B000B7F909F500664FF40051012230464FF483
:1039C000005BFDF7ADF90321002248460024FDF716
:1039D000A7F96F464FF4C06000900220CDE90104C2
:1039E00007200490A9F5806039460394FDF7A4F8F8
:1039F00028463946CDE900A8CDE90244FDF79CF8F8
:103A000030463946CDE900B8CDE90244FDF794F8D7
:103A100003203946CDE900084846CDE90244FDF7C8
:103A20008BF805B0BDE8F08F80B540F6080045F68C
:103A30000001C2F2004047F2B152C4F20001C3F2E9
:103A40007002C0E90012002181600122C0E9032157
:103A5000C0E90511C0E90711FDF7C6F908B1FCF787
:103A60000FFD40F608000021C2F20040FDF770F99A
:103A700008B1FCF705FD40F608000021C2F2004045
:103A8000FDF78EF9002808BF80BDBDE88040FCF737
:103A9000F7BC000000000000B0B58EB040F6540046
:103AA00041F20001C2F2004000240D94C5F2000171
:103AB000C0E90014C0E90244C0E90444022585615C
:103AC0002E21C1611921016240F24E31416240F262
:103AD000F911816240F25B31C16240F2062101635B
:103AE000848680F83640FDF72BFD08B1FCF7C8FC52
:103AF0004FF448704FF48063CDE902040893052326
:103B000009934FF05043CDE90A3040F654004FF48A
:103B1000F071CDE90415FF220C91CDE90624ADF832
:103B20003420C2F2004001A9002201948DF83640F1
:103B3000FDF7CAFC08B1FCF7A3FC0EB0B0BD000055
:103B4000FEE7000000000000FEE7000000000000AB
:103B5000EFF30980BFF36F8F154B1A681EF0100F3B
:103B600008BF20ED108A20E9F04F10602DE9090010
:103B70004FF0500080F31188BFF34F8FBFF36F8F6A
:103B800033F0CAFE4FF0000080F31188BDE8090051
:103B900019680868B0E8F04F1EF0100F08BFB0ECCD
:103BA000108A80F30988BFF36F8F704700BF00BF92
:103BB000B403002400000000F0B581B044F22C47AB
:103BC000C5F6020757F8042C02F00302032A03D1BA
:103BD000012001B0F0BD00BF054657F82C0C0C4683
:103BE00020F0806047F82C0CFDF7AAF8064600BFCD
:103BF00057F82C0C000105D5FDF7A2F8801B022810
:103C0000F6D964E057F8040CEE6895E80E0020F44D
:103C10007C30012C40EA0130A2F101016FF35F21F9
:103C20004FF47E4202EB432247F8040C92B24FF06D
:103C3000FE4302EB01004FF4FE012A6901EB06414D
:103C400001F4FE0103EB0262084402F0FE41084465
:103C5000F8603868696920F0C00040EA0100386007
:103C60003868A96920F0200040EA0100386038680F
:103C70004FF6F87120F0100038603869EA6920EAE0
:103C800001004FF4001140EAC2003861386808BFF3
:103C90004FF4801140F01000002C386008BF4FF442
:103CA000002138680843386057F82C0C40F08060D9
:103CB00047F82C0CFDF744F8044600BF57F82C0CCD
:103CC000000107D4FDF73CF8001B0328F6D30320BE
:103CD00001B0F0BD002001B0F0BD00000000000008
:103CE000F0B581B044F22C47C5F6020757F8042C12
:103CF00002F00302032A03D1012001B0F0BD00BF8E
:103D0000054657F82C0C0C4620F0805047F82C0C38
:103D1000FDF716F8064600BF57F82C0C800005D5B5
:103D2000FDF70EF8801B0228F6D964E057F8040C62
:103D3000EE6895E80E0020F07C70012C40EA0150FE
:103D4000A2F101016FF35F214FF47E4202EB4322A7
:103D500047F8040C92B24FF0FE4302EB01004FF41F
:103D6000FE012A6901EB064101F4FE0103EB026248
:103D7000084402F0FE41084478613868696920F41B
:103D8000406040EA010038603868A96920F400709A
:103D900040EA0100386038684FF6F87120F480700E
:103DA0003860B869EA6920EA01004FF0807140EAA2
:103DB000C200B861386808BF4FF4000140F4807059
:103DC000002C386008BF4FF4800138680843386021
:103DD00057F82C0C40F0805047F82C0CFCF7B0FF43
:103DE000044600BF57F82C0C800007D4FCF7A8FF4E
:103DF000001B0328F6D3032001B0F0BD002001B062
:103E0000F0BD000000000000000000000000000005
:103E1000074B19680868B0E8F04F80F30988BFF3D2
:103E20006F8F4FF0000080F31188704700BF00BF14
:103E3000B4030024000000001CF092FB25F0FCFEFF
:103E400025F022FF40F26074C2F2004420462EF0BA
:103E5000D7F8204608F020FC2AF022F905202BF0A4
:103E6000C7FAF9E70000000080B54EF21000CEF26C
:103E70000000006834F074FA012808BF80BDBDE876
:103E8000804033F021BF0000B0B59CB044F6180468
:103E900009A84C21C5F60204FCF772FA022000259D
:103EA000CDE90755CDE90555CDE90355CDE90155D6
:103EB000FDF7A6FC0095206840F440402060206893
:103EC00000F44040009040F22C40C5F6000001682C
:103ED00041F001010160006800F0010000900098CD
:103EE0002068800409D4206880045CBF20685FEAF1
:103EF000804002D420688004F2D54FF610400222A0
:103F0000CFF6FF700025215862F3010121500120F6
:103F100009904FF480300A9005201490C0200824A6
:103F2000CDE9150209A81994CDE91222CDE917228D
:103F3000CDE91A55FEF7DCFC3F20019003204FF439
:103F40008061CDE9020540200494CDE90500CDE96A
:103F5000071001A80421FEF7AFFA1CB0B0BD0000A5
:103F60004EF6885C4EF67F50CEF2000CCEF6F62070
:103F7000DCF8001041F47001CCF8001044F200416C
:103F8000C5F602010A6842F001020A6000220A61D5
:103F90000B68184008608A61CA610A628A62CA6254
:103FA0000A634A638A63CA630A644A64086820F43D
:103FB0008020086041F200000A66C5F600400068F3
:103FC000B2EB507F05D148F208100121C5F2001074
:103FD00001604FF000604CF8800C7047000000005A
:103FE00040F6FC00C2F20040FFF772B8000000008B
:103FF00010B540F6FF32C4F20002904202680FDCB6
:10400000B0F1804F1DD040F20043C4F2000398424B
:1040100017D040F60003C4F20003984211D014E018
:1040200040F60043C4F2000398420AD040F2004335
:10403000C4F20103984204D00023C4F20103984261
:1040400003D122F070024B681A434FF6FF7343F618
:10405000FF7CC4F20003C4F2010C984214DD6045F9
:1040600022DD44F20003C4F20103984234D044F646
:104070000003C4F2010398422ED044F20043C4F27C
:104080000103984228D02BE040F2FF73C4F20003F2
:10409000984215DCB0F1804F1ED040F20043C4F2CC
:1040A0000003984218D01BE00023C4F20103984299
:1040B00012D040F20043C4F2010398420CD00FE04A
:1040C00040F60003C4F20003984205D040F60043D6
:1040D000C4F20003984203D122F44072CB681A4321
:1040E00022F080024C696045D1F800E08B6842EA1A
:1040F00004020260C362C0F828E015DD44F2000249
:10410000C4F2010290421AD044F60002C4F2010245
:10411000904214D044F20042C4F2010290420ED008
:104120000121416110BD00BF0022C4F20102904292
:1041300005D040F20042C4F201029042F0D1096978
:1041400001630121416110BDFEE700000000000095
:10415000B0B540F2D0244421C2F20044204601F020
:104160001FFB47F2C9000A21C0F60000002229F017
:1041700067FF40F27425C2F2004568600120287094
:10418000204601F0DDFA0028686805D02AF068F8BA
:1041900000202870B0BD00BF2AF04EF80020287023
:1041A000B0BD00000000000070B5B1F90030B1F9F9
:1041B00004E0B1F902C0B1F90610B2F90040B2F959
:1041C0000460B2F90250B2F90620A342C8BF1C46EF
:1041D000AC454FF00003C8BF6546B645B8BF76464C
:1041E0009142B8BF0A460021B442D8BF012395428C
:1041F0000480D8BF0121458019408680C2800846CE
:1042000070BD0000000000002DE9F04381B00C46B5
:10421000B0F90070B1F900108F423DDBB0F90260D7
:10422000B4F902108E4237DBB0F90490B4F90410EF
:10423000894531DCB0F90680B4F9060080452BDCF5
:1042400015466AB3694620462A46ADF80070ADF8B7
:10425000026000F099F8F8B1694620462A46ADF8A8
:104260000090ADF8026000F08FF8A8B169462046D2
:104270002A46ADF80070ADF8028000F085F858B11C
:10428000694620462A46ADF80090ADF8028000F05D
:104290007BF801B0BDE8F083002001B0BDE8F083F9
:1042A000012001B0BDE8F083B0F90020B1F904307D
:1042B0009A4211DCB0F90420B1F900309A420BDBCC
:1042C000B0F90220B1F906309A4205DCB0F90600D7
:1042D000B1F90210884201DA0020704701207047CE
:1042E0002DE9F04381B00C46B0F90460B1F900103B
:1042F0008E4211DBB0F90670B4F902108F420BDB6D
:10430000B0F90080B4F90410884505DCB0F90290DA
:10431000B4F90600814503DD012001B0BDE8F0835A
:104320001546EAB1694620462A46ADF80080ADF848
:10433000029000F029F898B9694620462A46ADF85F
:104340000060ADF8029000F01FF848B969462046B9
:104350002A46ADF80080ADF8027000F015F818B1EB
:10436000002001B0BDE8F083694620462A46ADF83A
:104370000060ADF8027000F007F880F0010001B0B5
:10438000BDE8F083000000002DE9F041B1F900E044
:10439000B0F900309E450DDBB0F90440A64509DCBC
:1043A000B1F902C0B0F902108C4503DBB0F9065038
:1043B000AC4503DD0020BDE8F08100BF012A5BDBD6
:1043C000E01A013086B200EBD6306E1A07B2701CCC
:1043D00086B24FEA670800EBD63006B27010B8EB31
:1043E000660FB8BF78109042A8BF1046C21817B227
:1043F000421816B2BE45D8BFB4451FDD2A1ABE45C5
:1044000012B235DC944533DB391809B2C91A01EB15
:10441000D1714C1002EB610203EB6101801AAEEB2B
:104420000101604404FB04F210FB00F011FB0101E8
:104430000020914298BF0120BDE8F081384400B2CD
:10444000C01A00EBD070421003EB600301EB600078
:1044500002FB02F1ACEB0000AEEB030210FB00F03C
:1044600012FB020200208A4298BF0120BDE8F081C1
:10447000231A1BB29E4503DA0120BDE8F08100BF7C
:10448000944517DAB445F7DC181A02B2A21A02EB07
:10449000D272531001EB620100EB6200ACEB010140
:1044A000AEEB000011FB01F103FB03F210FB001166
:1044B000BEE700BF191A0BB2E31A03EBD3735C100B
:1044C00002EB630201EB6301A8E7000000000000BB
:1044D00070B5B1F90030B2F90040B1F902C0B1F9DC
:1044E00004E0B1F90610B2F90250B2F90460A34237
:1044F000B2F90620B8BF1C46AC450480B8BF65467B
:10450000B6454580C8BF764691428680C8BF0A46F8
:10451000C28070BD000000002DE9F04F8BB0054651
:1045200029F016FD4FF000010891029015B1E868DE
:1045300002E000BF0FF0F0FE40F29019C2F2004915
:10454000C9F80000006925F077FAD9F80010486929
:1045500018B125F071FAD9F80010C86925F06CFA85
:10456000D9F80000006A25F067FAD9F8000001695F
:10457000002900F08780B0F85011002900F08880F1
:1045800000250DF1240A4FF0010804E0002100BFCE
:1045900001358D424ED2421992F83021002AF7D1CE
:1045A0000029F3D0002406E0D9F800000134B0F867
:1045B00050118C42ECD2011991F830110029F3D13D
:1045C000AC42F1D000F1300101EBC50001EBC401B8
:1045D000FFF76AFE0028E7D0D9F80000303000EB82
:1045E000C50100EBC4025046FFF772FF50460BF0C6
:1045F000E7FED9F80010064601EBC50101F13000D5
:104600000BF0DEFED9F80010074601EBC40101F102
:1046100030000BF0D5FE38448642C5D2D9F80000F0
:10462000DDE9092300EBC50120440A634B6380F8F0
:104630003081B9E7B0F850810021C9F80410B8F111
:10464000000F00F0CD81B8F1010F25DB00EB080170
:1046500091F82F2122B3B8F1020F1DD391F82E212A
:1046600012B3B8F1030F17D391F82D2102B3B8F1AB
:10467000040F11D391F82C11A8F104080029E2D1FC
:1046800018E000BF0021A0F850110BB0BDE8F08F7A
:104690000020C9F80400A3E14FF000080AE000BFC1
:1046A000A8F1010806E000BFA8F1020802E000BF7F
:1046B000A8F1030801684A6B22B108469047D9F86F
:1046C00000000168C9688A6922F001028A610168F4
:1046D000C9688A6922F002028A61B0F8502190F814
:1046E0002810002A41F0040280F8282000F074818C
:1046F0000027CDF804801AE0816962F341018161ED
:10470000B56030462BF06CFDD9F8000000EBC70017
:1047100030300BF055FE0146D9E900021144C9F8CA
:104720000410B0F8501101378F4280F00F81C11989
:1047300091F830110029F4D1474505D10168C968C5
:104740008A6942F001028A61016800EBC70404F142
:104750003005C9688A6922F002028A610168CA6864
:10476000CE6B92683260097C89071DD00FF0F0FD96
:10477000441ED9F800000FF04FFE23B2013800218B
:10478000002200B2009050460BF062FED9F8000003
:10479000C6F804A00168D1E9030189078269ABD595
:1047A00042F002015546AAE7298834F936AF05914F
:1047B0002146A04631F8022D0691049238F8042DC6
:1047C00003920FF029FE8245079503DAB4F800B092
:1047D00006E000BFD9F800000FF01EFEA0F1010BAB
:1047E000D9F800000599DDE903320068511A01315A
:1047F000AAEB0303C268013309B2D268B2FBF1FA33
:1048000019B282698A45C8BF8A469AB300210991C4
:10481000ADF8281009A9AAF10105ADF82A50904772
:10482000BDF82610BDF92A00411A013109B28A45A6
:1048300016DA00BF28B201281ADBD9F8000009A94E
:10484000013D0068ADF82A5082699047BDF82610F6
:10485000BDF92A00411A013109B28A45EADB03E0B9
:104860000FFA8AF1012903DB00F1010A02E000BF1F
:104870004FF0000A0FFA8BF5B8F900000AEB0001BF
:1048800080B24A1EAA4212DD00210DF1240ADDF891
:104890000480A9423FF438AF3CE000BF30462BF023
:1048A0009FFC0AFA84F120464A1EAA4228DC0FFA2D
:1048B00082F8079B0C4645451B88ADF82430069BC3
:1048C0001B88ADF82600D9F80000ADF82830ADF807
:1048D0002A2009AB7360B3600068C06881683160EA
:1048E00002DAD846ADF82AB01FFA88F11FFA8BF227
:1048F0008A42D3D1816941F002018161CEE700BFD4
:104900000FFA88F120460DF1240ADDF80480A9424F
:104910003FF4FAAE07990988ADF824100699098882
:10492000ADF82600D9F80000ADF82810ADF82AB08F
:10493000C6F804A0C6F808A00068C06881683160A5
:10494000816941F002018161DBE600BF90F8282017
:10495000002902F0FB0180F8281041D00168097C91
:10496000890719D50FF0F4FC441ED9F800000FF0A8
:1049700053FD23B201380021002200B200905046BE
:104980000BF066FDD9F800000168C96BC1F804A0FE
:1049900004F0DEFAD9F8000030304FF480711EF0D8
:1049A00017FCD9F80000202100F598701EF010FCCB
:1049B000D9F800000021A0F85011029829F0ACFAB3
:1049C0000890D9F800000068436A4BB10899D9F8FB
:1049D0000420984704E000BF01F0FB0180F8281094
:1049E0001DF016FE00F0E8F800F0A2F8D9F81C60FF
:1049F000D6BB0FF091FC0FF0C7FC1BF0E1FF7F214D
:104A00000022064624F0C8FE00210022304624F091
:104A1000ABFE4FF6FF710022304624F045FF032124
:104A20000022304624F020FF03210022304624F0EB
:104A300003FF03210022304624F006FF0321002259
:104A4000304624F009FF03210022304624F024FFE1
:104A500032A130461DF00CFA062100220023304618
:104A60001FF042FCC9F81C60D9F8080029F054FA7C
:104A700080084A2812D8D9F8040041F289318842C6
:104A800041D30898D9E903120844C9F80C00501C16
:104A9000C9F810000BB0BDE8F08F00BF29F058FA3C
:104AA000D9F80010C9F80800486878B300684FF4D6
:104AB0007A71B1FBF0F0D9F81010054651B1D9F870
:104AC0000C204FF47A73002A03FB01F108BF012286
:104AD000B1FBF2F50021C9F80C108542C9F810109D
:104AE00088BF0546D9E905012944C9F818100130E5
:104AF000C9F8140029F0CCFAC0F1640308A13046CB
:104B00002A461DF0F9F90BB0BDE8F08F6420D9F802
:104B1000101005460029D2D1DCE700BF3F0000009D
:104B20002575204650530A257525252043505500EC
:104B300010B540F20454C2F20044206808B11DF0E0
:104B4000E3FE1C2120461EF043FBE06908B11DF086
:104B5000DBFE04F11C001C211EF03AFBA06B08B127
:104B60001DF0D2FE04F138001C211EF031FB606DF7
:104B700008B11DF0C9FE04F154001C21BDE810402D
:104B80001EF026BB0000000040F25C71C2F2004142
:104B9000096804E00A7E42F001020A76496939B1E7
:104BA0004A688242F6D00A688242F7D1F2E700BF33
:104BB0007047000000000000704700000000000087
:104BC00040F2C4200421C2F2004000F0E9BD000020
:104BD00040F2DC202021C2F2004000F0E1BD0000E4
:104BE0002DE9F04F85B01D4683460E9E002B08BF71
:104BF000B6F5807F74D0DDF83C800023019301A8D6
:104C0000ADF80810071DCDF80A304346ADF80E2068
:104C100000F10809ADF810102946ADF8122032460F
:104C200000F10C0A24F064FF384629463246434618
:104C300024F05EFF484629463246434624F058FF9A
:104C4000504629463246434624F052FFBDF90860DB
:104C5000BDF90430BDF91000BDF90C703246B34205
:104C60000146B8BF1A468742B8BF39468A42B8BF24
:104C70001146B342C8BF1E468742A1F10201C8BF18
:104C80003846BDF90A40BDF90620BDF91250BDF9FC
:104C90000E7086422346C8BF30462E46A242B8BF99
:104CA0001346AF4200F10200B8BF3E46B342B8BF60
:104CB0001E46A242C8BF1446AF42C8BF3D46ABF82D
:104CC0000010B11EAC42C8BF2546ABF80210A91CAB
:104CD000ABF80400ABF8061005B0BDE8F08F00BFDC
:104CE0000020CBF80000481E511EABF80400ABF8C2
:104CF000061005B0BDE8F08FF0B581B016460C4641
:104D0000074629F025F9A2B240F2F454C2F2004459
:104D100005462046394633461AF096F940B1E06917
:104D200000284FF00000A0620ED0204601B0F0BD78
:104D30002C2120461EF04CFA4FF00040A0620024C7
:104D4000204601B0F0BD00BF284629F0E5F8002854
:104D500008BF0120E061204601B0F0BD0000000066
:104D600010B540F2E8241421C2F20044204600F0BD
:104D700017FD204600F01CFDC0B1142104461EF0B2
:104D800027FA4EF2C9504EF2C961C0F60100C0F6D2
:104D9000010120604EF6D90061604EF29151C0F6DB
:104DA0000100C0F60101C4E9020110BDFEE70000E8
:104DB000B0B50C460546102120461EF009FA2868B9
:104DC0000178042908D0022908D0012908D1298AAC
:104DD0002180698A618003E00A2100E0E96861605E
:104DE0004268002A08BFB0BD2146BDE8B040104768
:104DF0002DE9F04F8BB0D0F828A08346BAF1000F10
:104E000028D0BBF8100020B9BBF81200002800F031
:104E1000B7819BF83C0000F00F00032840F04C8164
:104E2000504621F099F80646504621F011F8BBF99A
:104E300010100246032000905046334607F088FACF
:104E400007460026504620F0CBFFC10700F04B81FB
:104E500050E100BFBBF81000BBF81410BBF81220E3
:104E6000BBF816300844ABF814009818ABF81600DD
:104E70001AF03AFEBBF91410DBF82060BBF91620DB
:104E80004FF00009002501EBE13383EAE1318CB2F8
:104E900002EBE23383EAE2311FFA81F8444598BF1E
:104EA0004FF00109002E00F06B8100684FF0000AFE
:104EB000007E0A904042099007E000BF304620F093
:104EC0000FFF0646002800F0BD801021304621F07B
:104ED0006BFF98B94FF48071304621F065FF40EACE
:104EE0000900012840F0AE804FF40071304621F0F7
:104EF0005BFF0028E2D14445E0D8A3E000200695FE
:104F0000444588BF01200390304620F069FF0146E8
:104F100009EA9000089009EAD10004903046029115
:104F200021F0A2F80546304620F0F6FE074630464E
:104F300020F08EFF0790304621F00EF82B46002D12
:104F40000597D8BF012F17DB0DF1080E08999EE8D1
:104F5000A04021B1BBF916100A9A914207DABEF1BE
:104F6000000F0DD0BBF91610099A914208DCB24629
:104F70000C21069104E000BF0DF1080E9EE8A04050
:104F8000079905EA070207EA550C0029D8BF01284E
:104F900014DB069D1F462AB1BBF914300A998B42D7
:104FA000079908DABCF1000F0AD0BBF9143009994F
:104FB0008B42079904DC0325B24601E0069D1F469B
:104FC00000230028C8BF012300294FF00001C8BFFB
:104FD0000121059800284FF00000C8BF0120002FD4
:104FE0004FF0000701EA0201C8BF0127012904D1DF
:104FF000BBF914100A9A914219DA13EA0C0104D091
:10500000BBF91410099A914211DD0899394004D076
:10501000BBF916100A9A914209DA10EA0E003FF421
:1050200059AFBBF91600099988423FF753AF0C20DE
:105030009BF83C10444588BF032001F0F001084470
:105040008BF83C00BAF1000F00F09A809BF83C000E
:1050500005F00F014EF20106CBF828A000F0F00099
:1050600008448BF83C000020CBF814008021504607
:1050700021F09AFE002800F08780504620F0ECFFD7
:10508000032800F08D80022800F0A480012840F061
:10509000B380BAF8160041F6FF720023013001B266
:1050A000504607F0B1FB31B2ABF83200BAF8160047
:1050B000013802B29BE000BF504620F0D5FF064603
:1050C000504620F029FEBBF9121003460C20009038
:1050D0005046324607F03CF906460027504620F07D
:1050E0007FFEC10706D1002F04DD0027410707D549
:1050F0000AE000BF810758BF27EAE777410703D4DA
:10510000002E01DD002603E0000758BF26EAE67600
:10511000BBF91600BBF9321000FA86F20B1A8A426C
:10512000B8BF00FA83F2BBF93610BBF93040BBF9C7
:105130001450B8BF1E468A42A4EB050305FA87F255
:10514000C8BF0E1AA242B8BF05FA83F2BBF93400F9
:10515000B8BF1F468242C8BF471B32B2504639B261
:1051600000F0BAFB9BF80100800709D4BBF81400DB
:10517000BBF816103844ABF814008819ABF81600C9
:105180000BB0BDE8F08F00BF31B20BF1300041F63B
:10519000FF7341F6FF7200920A460BF059F979E06D
:1051A000BAF81600BAF81A100023091A01318AB2A7
:1051B00001EBD23141F6FF7209B200EB6107781CB6
:1051C00001B2504607F020FBABF83200781E02B265
:1051D0000CE000BFBAF91A1041F6FF7200235046E6
:1051E00007F012FBABF83200BAF91A2031B20023F3
:1051F000504607F009FB03E041F6FF70ABF8326060
:10520000ABF83600504620F01FFF032810D00228CC
:1052100028D0012838D1BAF9141041F6FF720023C2
:10522000504607F055FAABF83000BAF9142025E0E3
:10523000BAF81400BAF818100023091A01318AB21A
:1052400001EBD23141F6FF7209B200EB6107781C25
:1052500001B2504607F03CFAABF83000781E02B2BB
:105260000CE000BFBAF9181041F6FF720023504657
:1052700007F02EFAABF83000BAF9182031B200234B
:10528000504607F025FA03E041F6FF70ABF83060B6
:10529000ABF83400BBF83000002808BFABF8306032
:1052A000BBF8340018B941F6FF70ABF83400BBF816
:1052B0003200002808BFABF83260BBF8360018B9DE
:1052C00041F6FF70ABF8360009210022504618F075
:1052D0002BF89BF8010080073FF552AF91E50000E5
:1052E0002DE9F04782B0856A002D00F03C8104462C
:1052F00090F83C00000700F036811AF0F5FB82467A
:1053000000684021477E284621F04EFD08B9002064
:10531000A061284620F098FE8046284620F09CFE9A
:1053200094F83C10814601F00F01032946D00C2966
:1053300040F01781668BB9F1000F4FF00000208319
:1053400000F080801AF0D0FB002E4FF0000C00F02F
:10535000C180006848F21F520027C5F2EB12407E60
:10536000C0F1640010FB06F3374453FB02F35911FC
:1053700001EBD373190400F0AE8010FB03F11F445E
:1053800051FB02F14E1106EBD176310400F0A380FF
:1053900010FB06F1374451FB02F14B1103EBD173C3
:1053A000190400F0988010FB03F11F4451FB02F137
:1053B0004E1106EBD1763104D4D18CE0B8F1000F58
:1053C0004FF00000608361D0268B1AF08DFB002E19
:1053D0004FF0000C00F0A080006848F21F52002738
:1053E000C5F2EB12407EC0F1640000BF10FB06F373
:1053F000374453FB02F3591101EBD373190400F046
:105400008C8010FB03F11F4451FB02F14E1106EB9F
:10541000D176310400F0818010FB06F1374451FB56
:1054200002F14B1103EBD173190476D010FB03F199
:105430001F4451FB02F14E1106EBD1763104D5D158
:105440006BE000BF30B2C7F16401484348F21F511E
:10545000C5F2EB1150FB01F0410901EBD070608304
:10546000284620F059FC0746284620F0FDFDB4F9F7
:105470001A1002460C20009028463B4606F068FFB2
:10548000024660830021002368E000BFB4F91800E1
:10549000C7F16401484348F21F51C5F2EB1150FBBC
:1054A00001F0410901EBD0702083284620F0D0FCA8
:1054B0000746284620F050FDB4F918100346032093
:1054C000009028463A4606F043FF0146208300221A
:1054D000002343E00027B4F91600B4F9321000FAB3
:1054E00087F20B1A8A42B4F93610BCBF00FA83F275
:1054F0001F468A4241F6FF72C8BF0F1A4EF20101E1
:1055000028463BB2CFF6FF71A4F81AC007F07CF929
:105510003844002102B220E00027B4F91400B4F9A5
:10552000301000FA87F20B1A8A42B4F93410BCBF6B
:1055300000FA83F21F468A4241F6FF72C8BF0F1A73
:105540004EF2010128463BB2CFF6FF71A4F818C015
:1055500007F0BEF83844002201B20123284623F0A8
:1055600087FB208B10B102B0BDE8F087608B00286C
:10557000F9D1B9F1000F16D1284620F075FD074684
:10558000284620F0C9FB002FD8BF01280BDB002FD5
:1055900003D4B0F1FF3F06DC47423AB200210123B9
:1055A000284623F065FBB8F1000F16D1284620F0FD
:1055B0004FFC0746284620F0CFFC002FD8BF01281B
:1055C0000BDB002F03D4B0F1FF3F06DC474239B2BA
:1055D00000220123284623F04BFB0A21284652468D
:1055E00017F0A2FE60788007BDD494F83C0000F06C
:1055F000F00084F83C000020A06202B0BDE8F08713
:10560000F0B585B004460D4620B90EF085FE04467F
:10561000002852D020460EF01BFF00284DD094F8F1
:105620002800400749D40020C5B3029020460EF060
:105630008FFE0138ADF80C0020460EF0EDFE01386B
:10564000ADF80E00684602AA2946FEF7ADFDA0B3EC
:105650002068017C890725D482690AB16946904790
:10566000B4F8500160B304F1300500276E4600BF66
:10567000002230462946FEF7C7FDF0B9B4F85011B4
:10568000013708358F42F3D31F291AD90021A4F816
:105690005011029820630398606318E0A4F8500149
:1056A00005B0F0BD0120A4F85001606802992163A3
:1056B0000399616308B128F0D3FD05B0F0BD00BFC8
:1056C000002104EBC100DDE900230263436360684D
:1056D00001310028A4F85011EDD1EEE700000000E0
:1056E00070B528B345680446002D08BF70BD00267C
:1056F00007E000BFA360CBB19E5000BF1DF004F9CE
:10570000B5B1D4E900130A1D2846AB42AD5809D003
:10571000A36883424358EDD0002B18BF9D505DB164
:105720006B50EBE765602DB16E50E7E76660E5E72B
:1057300070BD00BF0021A160BDE870401DF0E4B85D
:10574000002814BF406800207047000000000000DF
:1057500080B1426872B10068011D032052585AB1ED
:1057600052585AB1525842B152580430002AF5D119
:10577000033870470020704702387047013870477F
:105780000068084440687047006808587047000087
:10579000002814BF8068002070470000000000004F
:1057A000033121F0030101600021C0E901117047BC
:1057B00010B50446006808301CF00AFF002808BF36
:1057C00010BD21680023421843506368536062682B
:1057D000002A18BF5050A1686060002908BFA0606F
:1057E00010BD00000000000010B50446006808303D
:1057F0001CF0EEFE002808BF10BD22680023111D1A
:105800004350A3688350A268002A18BF50506168B3
:10581000A060002908BF606010BD0000000000000B
:1058200030B1416809B9806810B10020704700BFED
:105830000120704700000000002808BF7047426840
:105840008A4211D0026883688B428B5814D002F1CF
:10585000040C002B51F80C0018BF43F80C00002872
:1058600018BF8350704700BF026811444968416007
:1058700051B1002088507047002B836018BFD018AA
:1058800000214160704700BF002181607047000027
:1058900010B50446006882681AB100BF21469047DF
:1058A0002068006820B120608268002AF6D1F8E7FD
:1058B00010BD0000000000008068002814BFC08AEE
:1058C000002000B270470000806818B1807E800917
:1058D000704700BF0020704770B50E4611431BD0C3
:1058E000154604461FF07CF8A0680123018A428A0D
:1058F0003144018251194182204631462A4621F025
:10590000BFFE0B210022204617F00EFD012818BF14
:1059100070BD204621F0CCFD012070BD00000000CC
:10592000F0B581B01446C8B1612205460F4620F09B
:10593000FBFF98B10646006880B1622228463946CE
:1059400020F0F2FF010609D0A1B23368C2B230469E
:105950009847C0EA040001B0F0BD00BF2046C0EA8D
:10596000040001B0F0BD00002DE9F04F91B00446F5
:10597000408CDDF868B0164640F004006084228454
:105980002046BBF808201F468A4620F0CDFF27841A
:105990000546BBF808202046514620F0C5FF618C23
:1059A0008146854221F00400608403D102D111B008
:1059B000BDE8F08F26842046BBF80820514620F031
:1059C000B3FF804620465146278407F0E1FFBBF82D
:1059D00008100068424626F013FBBBF808000B28AD
:1059E00028D147F6FF76B04518BFB14522D12046F1
:1059F00021F066F981B200EBD13000B245102046AB
:105A000020F0E2F881B2B04500EBD13000B24FEAAD
:105A1000600005D1691C00F101084145B8BF884606
:105A200047F6FF71894505D1691C00F10109494517
:105A3000B8BF894640F2F420C2F20040FFF7B8FE3A
:105A4000D0B306460460C0E90389BBF808006C4681
:105A5000B0802046C6F808A009F04EFE46F6D950A0
:105A6000BBF80210C0F60300019047F2090000964F
:105A7000C0F60300029046F64970C0F6030003909A
:105A80000020CDE90800FF200A90BBF800000B9031
:105A900048420C909DF84200DBF80C10079100F092
:105AA000FE008DF84200DBF810000690204609F059
:105AB000A3FE11B0BDE8F08FFEE70000000000007B
:105AC00040F2F4201421C2F20040FFF769BE00004A
:105AD0002DE9F04782B00446408C10F4FC7F00F0C2
